:100000000EC01DC01DC030C01AC019C018C017C016
:1000100068C065C014C013C012C011C010C0112444
:100020001FBECFE5D2E0DEBFCDBF20E0A0E6B0E04E
:1000300001C01D92A436B207E1F791D0BAC0E0CF5B
:100040008F938FB78F939F9386B38095887090918D
:10005000630098278093630093FD809362009F91D3
:100060008F918FBF8F9118951F920F920FB60F929D
:1000700011242F933F934F935F936F937F938F93AD
:100080009F93AF93BF93EF93FF9380916200882378
:1000900051F0809161008F5F8093610080916100D9
:1000A000883098F45AD0369AFF91EF91BF91AF9172
:1000B0009F918F917F916F915F914F913F912F9180
:1000C0000F900FBE0F901F901895809161008C309B
:1000D00010F4C19AE8CF41D010926100E4CF369A73
:1000E00018951F920F920FB60F9211242F933F93E2
:1000F0004F935F936F937F938F939F93AF93BF9330
:10010000EF93FF9385B190916000992331F0982F80
:100110009695809160008695890F8093600080910C
:10012000600011D0FF91EF91BF91AF919F918F919E
:100130007F916F915F914F913F912F910F900FBEE3
:100140000F901F901895809589BD99B582B7981723
:1001500018F489B5815082BF0895C198089587B376
:10016000876087BB82EB87B986B18C6886B982E4E9
:100170008ABD92E093BF8FEF89BD8FE880BF89B7BA
:10018000806689BF9EBD88E08BBD8FE08DBD789471
:100190008AB780628ABFAB9A8BB780628BBF86B307
:1001A0008095887080936200C298D7DF88ECCBDF9F
:0601B000FFCFF894FFCF21
:00000001FF
