:100000000EC01DC01DC050C01AC019C018C017C0F6
:1000100088C085C014C013C012C011C010C0112404
:100020001FBECFE5D2E0DEBFCDBF20E0A0E6B0E04E
:1000300001C01D92A436B207E1F7B1D0D9C0E0CF1C
:100040001F920F920FB60F9211242F933F934F934D
:100050005F936F937F938F939F93AF93BF93EF9330
:10006000FF9386B388709091630080936300982714
:1000700093FF09C08093620080916200811103C0E8
:100080008CD010926100FF91EF91BF91AF919F9141
:100090008F917F916F915F914F913F912F910F9031
:1000A0000FBE0F901F9018951F920F920FB60F92D0
:1000B00011242F933F934F935F936F937F938F936D
:1000C0009F93AF93BF93EF93FF9380916200882338
:1000D00051F0809161008F5F809361008091610099
:1000E000883098F45AD0369AFF91EF91BF91AF9132
:1000F0009F918F917F916F915F914F913F912F9140
:100100000F900FBE0F901F901895809161008C305A
:1001100010F4C19AE8CF41D010926100E4CF369A32
:1001200018951F920F920FB60F9211242F933F93A1
:100130004F935F936F937F938F939F93AF93BF93EF
:10014000EF93FF9385B190916000992331F0982F40
:100150009695809160008695890F809360008091CC
:10016000600011D0FF91EF91BF91AF919F918F915E
:100170007F916F915F914F913F912F910F900FBEA3
:100180000F901F901895809589BD99B582B79817E3
:1001900018F489B5815082BF0895C198089587B336
:1001A000876087BB82EB87B986B18C6886B982E4A9
:1001B0008ABD92E093BF8FEF89BD8FE880BF89B77A
:1001C000806689BF9EBD88E08BBD8FE08DBD789431
:1001D0008AB780628ABFAB9A8BB780628BBF86B3C7
:1001E000887080936200C298D8DF88ECCCDFFFCFA4
:0401F000F894FFCFB1
:00000001FF
